:100000000C9414000C942B000C942B000C942B00DB
:100010000C942B000C942B000C942B000C942B00B4
:100020000C942B000C942B0011241FBECFEFD0E1B9
:10003000DEBFCDBF11E0A0E0B1E0ECE4F2E000E013
:100040000BBF02C007900D92A633B107D9F70E94EB
:1000500080000C9424010C9400008093730084E8C9
:10006000809374008091740087FFFCCF08951F93E4
:10007000CF93DF93C82FD62F84EA809374008091AA
:10008000740087FFFCCF8EE40E942D008C2F807FB0
:10009000182F1D2B812F8C600E942D008AE08A95DD
:1000A000F1F700C0812F88600E942D00C295C07FAB
:1000B000CD2B8C2F8C600E942D009AE09A95F1F741
:1000C00000C08C2F88600E942D0084E9809374000A
:1000D0008FE39FE10197F1F700C00000DF91CF911E
:1000E0001F910895CF93DF93EC018881811103C0A4
:1000F000DF91CF910895219661E00E943700F5CFFE
:10010000CDB7DEB761970FB6F894DEBF0FBECDBF97
:100110001092710088E4809370002FEF30E782E046
:10012000215030408040E1F700C0000060E083E3F0
:100130000E94370060E082E30E94370060E088E2BE
:100140000E94370060E08CE00E94370060E081E0B0
:100150000E943700EFE3FFE13197F1F700C00000A4
:100160001092900087E689B988E18AB986E0809389
:10017000950060E080E80E94370080E091E00E94F6
:100180007200FFEF23ED30E3F15020403040E1F703
:1001900000C0000060E081E00E94370060E080E87D
:1001A0000E9437008DE091E00E94720080E090E0B4
:1001B0005F9BFECF2CB12D3011F02A30A9F50097AE
:1001C00081F1FE0131968E0F9F1FFC01108260E0CD
:1001D00081E00E9437008FE39FE10197F1F700C0B3
:1001E000000060E080E80E9437008BE191E00E940F
:1001F0007200CE0101960E94720088E291E00E9496
:10020000720060E080EC0E9437008AE291E00E9478
:100210007200CE0101960E94720084E391E00E9478
:10022000720080E090E0C4CF30EE320F3F3508F02E
:10023000BFCF803191050CF0BBCFFE013196E80FA6
:0C024000F91F20830196B4CFF894FFCF83
:10024C0053797374656D20526561647900576169E7
:10025C007420496E7075742E2E2E0054656D706569
:10026C007261747572653A00430048756D69646912
:06027C0074793A00250030
:00000001FF
